{
  "address": "0xBdb93B3Af9ff6ef11942d1dAdda2e186EFd41Bd4",
  "abi": [
    {
      "inputs": [],
      "stateMutability": "nonpayable",
      "type": "constructor"
    },
    {
      "anonymous": false,
      "inputs": [
        {
          "indexed": true,
          "internalType": "address",
          "name": "previousOwner",
          "type": "address"
        },
        {
          "indexed": true,
          "internalType": "address",
          "name": "newOwner",
          "type": "address"
        }
      ],
      "name": "OwnershipTransferred",
      "type": "event"
    },
    {
      "inputs": [],
      "name": "_closingHour",
      "outputs": [
        {
          "internalType": "uint256",
          "name": "",
          "type": "uint256"
        }
      ],
      "stateMutability": "view",
      "type": "function"
    },
    {
      "inputs": [],
      "name": "_closingMin",
      "outputs": [
        {
          "internalType": "uint256",
          "name": "",
          "type": "uint256"
        }
      ],
      "stateMutability": "view",
      "type": "function"
    },
    {
      "inputs": [],
      "name": "_openingHour",
      "outputs": [
        {
          "internalType": "uint256",
          "name": "",
          "type": "uint256"
        }
      ],
      "stateMutability": "view",
      "type": "function"
    },
    {
      "inputs": [],
      "name": "_openingMinute",
      "outputs": [
        {
          "internalType": "uint256",
          "name": "",
          "type": "uint256"
        }
      ],
      "stateMutability": "view",
      "type": "function"
    },
    {
      "inputs": [],
      "name": "_utcOffset",
      "outputs": [
        {
          "internalType": "int256",
          "name": "",
          "type": "int256"
        }
      ],
      "stateMutability": "view",
      "type": "function"
    },
    {
      "inputs": [],
      "name": "isTradingOpen",
      "outputs": [
        {
          "internalType": "bool",
          "name": "",
          "type": "bool"
        }
      ],
      "stateMutability": "view",
      "type": "function"
    },
    {
      "inputs": [
        {
          "internalType": "uint256",
          "name": "timestamp",
          "type": "uint256"
        }
      ],
      "name": "isTradingOpenAt",
      "outputs": [
        {
          "internalType": "bool",
          "name": "",
          "type": "bool"
        }
      ],
      "stateMutability": "view",
      "type": "function"
    },
    {
      "inputs": [],
      "name": "owner",
      "outputs": [
        {
          "internalType": "address",
          "name": "",
          "type": "address"
        }
      ],
      "stateMutability": "view",
      "type": "function"
    },
    {
      "inputs": [],
      "name": "renounceOwnership",
      "outputs": [],
      "stateMutability": "nonpayable",
      "type": "function"
    },
    {
      "inputs": [
        {
          "internalType": "int256",
          "name": "utcOffset",
          "type": "int256"
        }
      ],
      "name": "setUTCOffset",
      "outputs": [],
      "stateMutability": "nonpayable",
      "type": "function"
    },
    {
      "inputs": [
        {
          "internalType": "address",
          "name": "newOwner",
          "type": "address"
        }
      ],
      "name": "transferOwnership",
      "outputs": [],
      "stateMutability": "nonpayable",
      "type": "function"
    }
  ],
  "transactionHash": "0x47118d039ccbb3724c1045583fe0b564cfdbcbce1071cd12c8906cb76f5e2a1f",
  "args": [],
  "numDeployments": 1,
  "solcInputHash": "e6413438752d6ccbc78377fb6872bc8d",
  "bytecode": "0x60806040526003196001556009600255601e6003556010600455600060055534801561002a57600080fd5b50600061003e6001600160e01b0361008d16565b600080546001600160a01b0319166001600160a01b0383169081178255604051929350917f8be0079c531659141344cd1fd0a4f28419497f9722a3daafe3b4186f6b6457e0908290a350610091565b3390565b6106f5806100a06000396000f3fe608060405234801561001057600080fd5b50600436106100a95760003560e01c8063652421f511610071578063652421f514610111578063715018a6146101195780637579eb1a146101235780638da5cb5b14610140578063c89169ad14610164578063f2fde38b1461016c576100a9565b80630550245a146100ae57806311a1e853146100c857806321949a25146100f95780633871d6561461010157806356a060a214610109575b600080fd5b6100b6610192565b60408051918252519081900360200190f35b6100e5600480360360208110156100de57600080fd5b5035610198565b604080519115158252519081900360200190f35b6100b66101eb565b6100b66101f1565b6100e56101f7565b6100b6610209565b61012161020f565b005b6101216004803603602081101561013957600080fd5b50356102bb565b6101486103b7565b604080516001600160a01b039092168252519081900360200190f35b6100b66103c6565b6101216004803603602081101561018257600080fd5b50356001600160a01b03166103cc565b60035481565b6000806101a4836104ce565b90506101af81610506565b156101be5760009150506101e6565b6000806101ca8361051b565b5090955093506101e0925084915083905061055b565b93505050505b919050565b60045481565b60015481565b60004261020381610198565b91505090565b60055481565b6102176105a4565b6001600160a01b03166102286103b7565b6001600160a01b031614610271576040805162461bcd60e51b815260206004820181905260248201526000805160206106a0833981519152604482015290519081900360640190fd5b600080546040516001600160a01b03909116907f8be0079c531659141344cd1fd0a4f28419497f9722a3daafe3b4186f6b6457e0908390a3600080546001600160a01b0319169055565b6102c36105a4565b6001600160a01b03166102d46103b7565b6001600160a01b03161461031d576040805162461bcd60e51b815260206004820181905260248201526000805160206106a0833981519152604482015290519081900360640190fd5b600e8113610367576040805162461bcd60e51b8152602060048201526012602482015271125b9d985b1a59081550d5081bd9999cd95d60721b604482015290519081900360640190fd5b600b1981126103b2576040805162461bcd60e51b8152602060048201526012602482015271125b9d985b1a59081550d5081bd9999cd95d60721b604482015290519081900360640190fd5b600155565b6000546001600160a01b031690565b60025481565b6103d46105a4565b6001600160a01b03166103e56103b7565b6001600160a01b03161461042e576040805162461bcd60e51b815260206004820181905260248201526000805160206106a0833981519152604482015290519081900360640190fd5b6001600160a01b0381166104735760405162461bcd60e51b815260040180806020018281038252602681526020018061067a6026913960400191505060405180910390fd5b600080546040516001600160a01b03808516939216917f8be0079c531659141344cd1fd0a4f28419497f9722a3daafe3b4186f6b6457e091a3600080546001600160a01b0319166001600160a01b0392909216919091179055565b6000806000600154126104ee576104e7836001546105a8565b9050610500565b6104fd836001546000036105bc565b90505b92915050565b60006006610513836105d0565b101592915050565b600080808080806105306201518088046105e3565b91999098919750610e10620151809092068281049750603c9290068281049650919091069350915050565b600060025483108061056f57506004548310155b1561057c57506000610500565b6002548314801561058e575060035482105b1561059b57506000610500565b50600192915050565b3390565b610e10810282018281101561050057600080fd5b610e10810282038281111561050057600080fd5b6007620151809091046003010660010190565b60008080836226496581018262023ab1600483020590506004600362023ab18302010590910390600062164b09610fa0600185010205905060046105b58202058303601f019250600061098f846050028161063a57fe5b0590506000605061098f83020585039050600b820560301994909401606402929092018301996002600c9094029091039290920197509550935050505056fe4f776e61626c653a206e6577206f776e657220697320746865207a65726f20616464726573734f776e61626c653a2063616c6c6572206973206e6f7420746865206f776e6572a2646970667358221220f61cb27df6de545c0a81aba2657987ee123160d4395ebaca5d4b04fc74f2616764736f6c63430006060033",
  "devdoc": {
    "methods": {
      "owner()": {
        "details": "Returns the address of the current owner."
      },
      "renounceOwnership()": {
        "details": "Leaves the contract without owner. It will not be possible to call `onlyOwner` functions anymore. Can only be called by the current owner.     * NOTE: Renouncing ownership will leave the contract without an owner, thereby removing any functionality that is only available to the owner."
      },
      "transferOwnership(address)": {
        "details": "Transfers ownership of the contract to a new account (`newOwner`). Can only be called by the current owner."
      }
    }
  },
  "userdoc": {
    "methods": {}
  },
  "storageLayout": {
    "storage": [
      {
        "astId": 7004,
        "contract": "contracts/Gatekeeper.sol:Gatekeeper",
        "label": "_owner",
        "offset": 0,
        "slot": "0",
        "type": "t_address"
      },
      {
        "astId": 2392,
        "contract": "contracts/Gatekeeper.sol:Gatekeeper",
        "label": "_utcOffset",
        "offset": 0,
        "slot": "1",
        "type": "t_int256"
      },
      {
        "astId": 2395,
        "contract": "contracts/Gatekeeper.sol:Gatekeeper",
        "label": "_openingHour",
        "offset": 0,
        "slot": "2",
        "type": "t_uint256"
      },
      {
        "astId": 2398,
        "contract": "contracts/Gatekeeper.sol:Gatekeeper",
        "label": "_openingMinute",
        "offset": 0,
        "slot": "3",
        "type": "t_uint256"
      },
      {
        "astId": 2401,
        "contract": "contracts/Gatekeeper.sol:Gatekeeper",
        "label": "_closingHour",
        "offset": 0,
        "slot": "4",
        "type": "t_uint256"
      },
      {
        "astId": 2404,
        "contract": "contracts/Gatekeeper.sol:Gatekeeper",
        "label": "_closingMin",
        "offset": 0,
        "slot": "5",
        "type": "t_uint256"
      }
    ],
    "types": {
      "t_address": {
        "encoding": "inplace",
        "label": "address",
        "numberOfBytes": "20"
      },
      "t_int256": {
        "encoding": "inplace",
        "label": "int256",
        "numberOfBytes": "32"
      },
      "t_uint256": {
        "encoding": "inplace",
        "label": "uint256",
        "numberOfBytes": "32"
      }
    }
  }
}